:100000000C9472000C9493000C9493000C94930045
:100010000C9493000C940A1A0C94D0180C9493002E
:100020000C9493000C9493000C9493000C94930004
:100030000C9493000C9493000C9493000C949300F4
:100040000C9493000C9493000C9493000C949300E4
:100050000C94771B0C9493000C9493000C949300D5
:100060000C9493000C9493000C9493000C949300C4
:100070000C9493000C9493000C9493000C949300B4
:100080000C9493000C9493000C9493000C94441BD8
:100090000C9493000C9493000C9493000C94930094
:1000A0000C9493000C9493000C9493000C94930084
:1000B0000C9493000C94AA1B0C9493000C94930042
:1000C0000C9493000C9493000C9493000C94B01334
:1000D0000C9493000C9493000C94BC120C94930019
:1000E0000C94930011241FBECFEFD1E2DEBFCDBF31
:1000F00000E00CBF13E0A0E0B2E0ECECFBE800E0B5
:100100000BBF02C007900D92A035B107D9F71CE0D4
:10011000A0E5B3E001C01D92A835B107E1F70E9448
:10012000632B0C94E4450C9400000F931F93DF9312
:10013000CF93CDB7DEB7C057D0400FB6F894DEBF2F
:100140000FBECDBFFE01E359FF4F80E090E0A0E875
:10015000BFE380839183A283B3838E0107591F4F2E
:10016000FE01E359FF4F60817181828193812DEC03
:100170003CEC4CE255E40E947D3EDC01CB01F801F1
:1001800080839183A283B383FE01E759FF4F60818F
:1001900071818281938120E030E040E85FE30E943A
:1001A0008340882344F4FE01E959FF4F81E090E049
:1001B0009183808364C0FE01E759FF4F60817181A4
:1001C0008281938120E03FEF4FE757E40E94234074
:1001D00018160CF043C0FE01E359FF4F6081718196
:1001E0008281938120E030E040E251E40E947D3E34
:1001F000DC01CB018E0109591F4FBC01CD010E94CA
:10020000422CDC01CB01F801918380831FC0FE01E9
:10021000EB59FF4F84E191E091838083FE01EB591C
:10022000FF4F808191810197F1F7FE01EB59FF4F5C
:1002300091838083DE01A959BF4FFE01E959FF4F29
:1002400080819181019711969C938E93FE01E959CB
:10025000FF4F808191810097D1F627C08E01095907
:100260001F4FFE01E759FF4F6081718182819381A9
:100270000E94422CDC01CB01F80191838083DE01D6
:10028000AD59BF4FFE01E959FF4F808191818D9398
:100290009C93FE01ED59FF4F808191810197F1F709
:1002A000FE01ED59FF4F91838083A8E2B0E0E8E2C0
:1002B000F0E080818E7F8C93A8E2B0E0E8E2F0E08D
:1002C00080818D7F8C93E8E2F0E080E38083A8E278
:1002D000B0E0E8E2F0E0808184608C93FE01E15AB6
:1002E000FF4F80E090E0A0EAB0E480839183A28396
:1002F000B3838E01055A1F4FFE01E15AFF4F608103
:100300007181828193812DEC3CEC4CE255E40E949A
:100310007D3EDC01CB01F80180839183A283B3830E
:10032000FE01E55AFF4F608171818281938120E057
:1003300030E040E85FE30E948340882344F4FE01FC
:10034000E75AFF4F81E090E09183808364C0FE0113
:10035000E55AFF4F608171818281938120E03FEFF8
:100360004FE757E40E94234018160CF043C0FE01EB
:10037000E15AFF4F608171818281938120E030E0FA
:1003800040E251E40E947D3EDC01CB018E01075A20
:100390001F4FBC01CD010E94422CDC01CB01F801B2
:1003A000918380831FC0FE01E95AFF4F84E191E0F1
:1003B00091838083FE01E95AFF4F808191810197EB
:1003C000F1F7FE01E95AFF4F91838083DE01A75ABE
:1003D000BF4FFE01E75AFF4F80819181019711962F
:1003E0009C938E93FE01E75AFF4F80819181009785
:1003F000D1F627C08E01075A1F4FFE01E55AFF4F65
:1004000060817181828193810E94422CDC01CB0149
:10041000F80191838083DE01AB5ABF4FFE01E75A9A
:10042000FF4F808191818D939C93FE01EB5AFF4F8A
:10043000808191810197F1F7FE01EB5AFF4F918383
:100440008083A8E2B0E0E8E2F0E080818B7F8C93CB
:10045000FE01EF5AFF4F80E090E0A0E8BFE3808309
:100460009183A283B3838E01035B1F4FFE01EF5A7A
:10047000FF4F60817181828193812DEC3CEC4CE2D5
:1004800055E40E947D3EDC01CB01F801808391831D
:10049000A283B383FE01E35BFF4F608171818281A0
:1004A000938120E030E040E85FE30E9483408823AE
:1004B00044F4FE01E55BFF4F81E090E0918380838F
:1004C00064C0FE01E35BFF4F608171818281938193
:1004D00020E03FEF4FE757E40E94234018160CF04E
:1004E00043C0FE01EF5AFF4F608171818281938189
:1004F00020E030E040E251E40E947D3EDC01CB018F
:100500008E01055B1F4FBC01CD010E94422CDC0116
:10051000CB01F801918380831FC0FE01E75BFF4F91
:1005200084E191E091838083FE01E75BFF4F80814E
:1005300091810197F1F7FE01E75BFF4F9183808383
:10054000DE01A55BBF4FFE01E55BFF4F808191811E
:10055000019711969C938E93FE01E55BFF4F80817E
:1005600091810097D1F627C08E01055B1F4FFE01D8
:10057000E35BFF4F60817181828193810E94422CF5
:10058000DC01CB01F80191838083DE01A95BBF4FC1
:10059000FE01E55BFF4F808191818D939C93FE016D
:1005A000E95BFF4F808191810197F1F7FE01E95BE3
:1005B000FF4F91838083A8E2B0E0E8E2F0E0808121
:1005C0008E7F8C93A8E2B0E0E8E2F0E080818D7F3E
:1005D0008C93E8E2F0E080E38083A8E2B0E0E8E218
:1005E000F0E0808184608C93FE01ED5BFF4F80E042
:1005F00090E0A0EAB0E480839183A283B3838E016C
:10060000015C1F4FFE01ED5BFF4F608171818281B4
:1006100093812DEC3CEC4CE255E40E947D3EDC01E4
:10062000CB01F80180839183A283B383FE01FF96FF
:10063000608171818281938120E030E040E85FE356
:100640000E94834088232CF481E090E09EAF8DAF20
:1006500046C0FE01FF96608171818281938120E016
:100660003FEF4FE757E40E942340181664F5FE0160
:10067000ED5BFF4F608171818281938120E030E0EA
:1006800040E251E40E947D3EDC01CB01BC01CD0182
:100690000E94422CDC01CB019EAF8DAF0FC084E1E4
:1006A00091E09CAF8BAF8BAD9CAD0197F1F79CAF08
:1006B0008BAF8DAD9EAD01979EAF8DAF8DAD9EADD5
:1006C000009769F716C0FE01FF96608171818281F3
:1006D00093810E94422CDC01CB019EAF8DAF8DAD8A
:1006E0009EAD9AAF89AF89AD9AAD0197F1F79AAFF8
:1006F00089AFA8E2B0E0E8E2F0E080818B7F8C93E4
:1007000080E090E0A0E8BFE38DAB9EABAFABB8AFAD
:100710006DA97EA98FA998AD2DEC3CEC4CE255E477
:100720000E947D3EDC01CB0189AB9AABABABBCAB8D
:1007300069A97AA98BA99CA920E030E040E85FE391
:100740000E94834088232CF481E090E098AB8FA72F
:100750003FC069A97AA98BA99CA920E03FEF4FE788
:1007600057E40E94234018164CF56DA97EA98FA965
:1007700098AD20E030E040E251E40E947D3EDC0193
:10078000CB01BC01CD010E94422CDC01CB0198AB16
:100790008FA70FC084E191E09EA78DA78DA59EA590
:1007A0000197F1F79EA78DA78FA598A9019798AB00
:1007B0008FA78FA598A9009769F714C069A97AA98E
:1007C0008BA99CA90E94422CDC01CB0198AB8FA77E
:1007D0008FA598A99CA78BA78BA59CA50197F1F73E
:1007E0009CA78BA7A8E2B0E0E8E2F0E080818E7FD2
:1007F0008C93A8E2B0E0E8E2F0E080818D7F8C93FA
:10080000E8E2F0E080E38083A8E2B0E0E8E2F0E034
:10081000808184608C9380E090E0A0EAB0E48FA3B4
:1008200098A7A9A7BAA76FA178A589A59AA52DEC25
:100830003CEC4CE255E40E947D3EDC01CB018BA3F5
:100840009CA3ADA3BEA36BA17CA18DA19EA120E022
:1008500030E040E85FE30E94834088232CF481E08D
:1008600090E09AA389A33FC06BA17CA18DA19EA11A
:1008700020E03FEF4FE757E40E94234018164CF565
:100880006FA178A589A59AA520E030E040E251E467
:100890000E947D3EDC01CB01BC01CD010E94422CB7
:1008A000DC01CB019AA389A30FC084E191E098A356
:1008B0008F8F8F8D98A10197F1F798A38F8F89A1C2
:1008C0009AA101979AA389A389A19AA1009769F790
:1008D00014C06BA17CA18DA19EA10E94422CDC01C1
:1008E000CB019AA389A389A19AA19E8F8D8F8D8D0B
:1008F0009E8D0197F1F79E8F8D8FA8E2B0E0E8E220
:10090000F0E080818B7F8C9380E090E0A0E8BFE3F3
:10091000898F9A8FAB8FBC8F698D7A8D8B8D9C8DD3
:100920002DEC3CEC4CE255E40E947D3EDC01CB0119
:100930008D8B9E8BAF8BB88F6D897E898F89988DBB
:1009400020E030E040E85FE30E94834088232CF4FD
:1009500081E090E09C8B8B8B3FC06D897E898F8975
:10096000988D20E03FEF4FE757E40E942340181690
:100970004CF5698D7A8D8B8D9C8D20E030E040E2C6
:1009800051E40E947D3EDC01CB01BC01CD010E94FF
:10099000422CDC01CB019C8B8B8B0FC084E191E05E
:1009A0009A8B898B89899A890197F1F79A8B898B20
:1009B0008B899C8901979C8B8B8B8B899C89009759
:1009C00069F714C06D897E898F89988D0E94422CA9
:1009D000DC01CB019C8B8B8B8B899C89988B8F87BF
:1009E0008F8598890197F1F7988B8F87A8E2B0E0FF
:1009F000E8E2F0E080818E7F8C93A8E2B0E0E8E24C
:100A0000F0E080818D7F8C93E8E2F0E080E28083EB
:100A1000A8E2B0E0E8E2F0E0808184608C9380E0BE
:100A200090E0A0EAB0E48B879C87AD87BE876B859A
:100A30007C858D859E852DEC3CEC4CE255E40E9436
:100A40007D3EDC01CB018F839887A987BA876F81B0
:100A5000788589859A8520E030E040E85FE30E9450
:100A6000834088232CF481E090E09E838D833FC0F7
:100A70006F81788589859A8520E03FEF4FE757E4BD
:100A80000E94234018164CF56B857C858D859E85CC
:100A900020E030E040E251E40E947D3EDC01CB01E9
:100AA000BC01CD010E94422CDC01CB019E838D83D1
:100AB0000FC084E191E09C838B838B819C810197A3
:100AC000F1F79C838B838D819E8101979E838D831B
:100AD0008D819E81009769F714C06F817885898523
:100AE0009A850E94422CDC01CB019E838D838D81EF
:100AF0009E819A83898389819A810197F1F79A83EC
:100B00008983A8E2B0E0E8E2F0E080818B7F8C93FB
:100B1000C059DF4F0FB6F894DEBF0FBECDBFCF91E7
:100B2000DF911F910F910895DF93CF93CDB7DEB77B
:100B30002E970FB6F894DEBF0FBECDBF80E090E0D9
:100B4000A0E8BFE38B879C87AD87BE876B857C85DC
:100B50008D859E852DEC3CEC4CE255E40E947D3E5B
:100B6000DC01CB018F839887A987BA876F8178854D
:100B700089859A8520E030E040E85FE30E94834069
:100B800088232CF481E090E09E838D833FC06F81A9
:100B9000788589859A8520E03FEF4FE757E40E94EA
:100BA000234018164CF56B857C858D859E8520E04D
:100BB00030E040E251E40E947D3EDC01CB01BC010B
:100BC000CD010E94422CDC01CB019E838D830FC09E
:100BD00084E191E09C838B838B819C810197F1F769
:100BE0009C838B838D819E8101979E838D838D81D4
:100BF0009E81009769F714C06F81788589859A85F1
:100C00000E94422CDC01CB019E838D838D819E81CD
:100C10009A83898389819A810197F1F79A838983DD
:100C200088E20E944C0681E00E944C0686E00E9409
:100C30004C068EE00E944C0680E80E944C062E96E0
:100C40000FB6F894DEBF0FBECDBFCF91DF910895F0
:100C5000DF93CF93CDB7DEB769970FB6F894DEBFB9
:100C60000FBECDBF20E032E0CE010196B90144E1D4
:100C700050E00E94F444CE0101960E940A0981E0EE
:100C800061E00E94270969960FB6F894DEBF0FBE97
:100C9000CDBFCF91DF910895DF93CF93CDB7DEB76E
:100CA0006E970FB6F894DEBF0FBECDBF8E8F8E8DC0
:100CB0008D8F8D8D807F8D8FA8E2B0E0E8E2F0E02F
:100CC00080818F708C93A8E2B0E0E8E2F0E0908140
:100CD0008D8D892B8C93A8E2B0E0E8E2F0E0808172
:100CE0008E7F8C93A8E2B0E0E8E2F0E080818D7F17
:100CF0008C93A8E2B0E0E8E2F0E0808184608C931D
:100D000080E090E0A0EAB0E4898F9A8FAB8FBC8F2F
:100D1000698D7A8D8B8D9C8D2DEC3CEC4CE255E4ED
:100D20000E947D3EDC01CB018D8B9E8BAF8BB88FFB
:100D30006D897E898F89988D20E030E040E85FE3FF
:100D40000E94834088232CF481E090E09C8B8B8B65
:100D50003FC06D897E898F89988D20E03FEF4FE7F6
:100D600057E40E94234018164CF5698D7A8D8B8DBF
:100D70009C8D20E030E040E251E40E947D3EDC01A9
:100D8000CB01BC01CD010E94422CDC01CB019C8B2C
:100D90008B8B0FC084E191E09A8B898B89899A892A
:100DA0000197F1F79A8B898B8B899C8901979C8B92
:100DB0008B8B8B899C89009769F714C06D897E891C
:100DC0008F89988D0E94422CDC01CB019C8B8B8BF0
:100DD0008B899C89988B8F878F8598890197F1F7EC
:100DE000988B8F87A8E2B0E0E8E2F0E080818B7F0B
:100DF0008C938E8D8F708E8F8E8D8295807F8E8F4F
:100E0000A8E2B0E0E8E2F0E080818F708C93A8E285
:100E1000B0E0E8E2F0E090818E8D892B8C93A8E21F
:100E2000B0E0E8E2F0E080818E7F8C93A8E2B0E051
:100E3000E8E2F0E080818D7F8C93A8E2B0E0E8E208
:100E4000F0E0808184608C9380E090E0A0EAB0E4E0
:100E50008B879C87AD87BE876B857C858D859E85BE
:100E60002DEC3CEC4CE255E40E947D3EDC01CB01D4
:100E70008F839887A987BA876F81788589859A85B6
:100E800020E030E040E85FE30E94834088232CF4B8
:100E900081E090E09E838D833FC06F817885898556
:100EA0009A8520E03FEF4FE757E40E942340181651
:100EB0004CF56B857C858D859E8520E030E040E299
:100EC00051E40E947D3EDC01CB01BC01CD010E94BA
:100ED000422CDC01CB019E838D830FC084E191E025
:100EE0009C838B838B819C810197F1F79C838B83FF
:100EF0008D819E8101979E838D838D819E81009738
:100F000069F714C06F81788589859A850E94422C83
:100F1000DC01CB019E838D838D819E819A838983A1
:100F200089819A810197F1F79A838983A8E2B0E0D9
:100F3000E8E2F0E080818B7F8C936E960FB6F89498
:100F4000DEBF0FBECDBFCF91DF910895DF93CF936A
:100F5000CDB7DEB76E970FB6F894DEBF0FBECDBF2C
:100F60008E8F8E8D8D8F8D8D807F8D8FA8E2B0E0DE
:100F7000E8E2F0E080818F708C93A8E2B0E0E8E2D4
:100F8000F0E090818D8D892B8C93A8E2B0E0E8E2AF
:100F9000F0E0808181608C93A8E2B0E0E8E2F0E0CC
:100FA00080818D7F8C93A8E2B0E0E8E2F0E0808160
:100FB00084608C9380E090E0A0EAB0E4898F9A8FFF
:100FC000AB8FBC8F698D7A8D8B8D9C8D2DEC3CEC1D
:100FD0004CE255E40E947D3EDC01CB018D8B9E8B63
:100FE000AF8BB88F6D897E898F89988D20E030E036
:100FF00040E85FE30E94834088232CF481E090E086
:101000009C8B8B8B3FC06D897E898F89988D20E06A
:101010003FEF4FE757E40E94234018164CF5698DC7
:101020007A8D8B8D9C8D20E030E040E251E40E946F
:101030007D3EDC01CB01BC01CD010E94422CDC01D4
:10104000CB019C8B8B8B0FC084E191E09A8B898BB9
:1010500089899A890197F1F79A8B898B8B899C8969
:1010600001979C8B8B8B8B899C89009769F714C0A7
:101070006D897E898F89988D0E94422CDC01CB017D
:101080009C8B8B8B8B899C89988B8F878F8598897C
:101090000197F1F7988B8F87A8E2B0E0E8E2F0E0E3
:1010A00080818B7F8C938E8D8F708E8F8E8D8295AD
:1010B000807F8E8FA8E2B0E0E8E2F0E080818F7060
:1010C0008C93A8E2B0E0E8E2F0E090818E8D892B6D
:1010D0008C93A8E2B0E0E8E2F0E0808181608C933C
:1010E000A8E2B0E0E8E2F0E080818D7F8C93A8E296
:1010F000B0E0E8E2F0E0808184608C9380E090E0F2
:10110000A0EAB0E48B879C87AD87BE876B857C8522
:101110008D859E852DEC3CEC4CE255E40E947D3E95
:10112000DC01CB018F839887A987BA876F81788587
:1011300089859A8520E030E040E85FE30E948340A3
:1011400088232CF481E090E09E838D833FC06F81E3
:10115000788589859A8520E03FEF4FE757E40E9424
:10116000234018164CF56B857C858D859E8520E087
:1011700030E040E251E40E947D3EDC01CB01BC0145
:10118000CD010E94422CDC01CB019E838D830FC0D8
:1011900084E191E09C838B838B819C810197F1F7A3
:1011A0009C838B838D819E8101979E838D838D810E
:1011B0009E81009769F714C06F81788589859A852B
:1011C0000E94422CDC01CB019E838D838D819E8108
:1011D0009A83898389819A810197F1F79A83898318
:1011E000A8E2B0E0E8E2F0E080818B7F8C936E961D
:1011F0000FB6F894DEBF0FBECDBFCF91DF9108953B
:10120000DF93CF93CDB7DEB780E80E944C06CF9135
:10121000DF910895DF93CF930F920F92CDB7DEB792
:101220009A8389830AC0E981FA8180810E94A60796
:1012300089819A8101969A838983E981FA818081E3
:10124000882389F70F900F90CF91DF910895DF9356
:10125000CF9300D00F92CDB7DEB789836A8389819F
:10126000282F30E03C832B838B819C818230910539
:10127000D9F02B813C812330310534F48B819C8162
:101280008130910561F01EC02B813C8123303105F6
:1012900081F08B819C818430910581F013C08A811B
:1012A00081580E944C060EC08A8181540E944C06CF
:1012B00009C08A818D560E944C0604C08A818D52D5
:1012C0000E944C060F900F900F900F90CF91DF91DE
:1012D0000895DF93CF93CDB7DEB727970FB6F89475
:1012E000DEBF0FBECDBF8A836B835D834C833F839C
:1012F0002E8319828A81882319F08B81882319F41F
:101300000E94000904C08A816B810E9427098E8196
:101310009F818530910519F089818130A9F48C81F4
:101320009D8120E137E2B9010E944545CB01C0967D
:101330009093B3038093B2038091B2039091B3036F
:101340000E94A60781E089838E819F818430910568
:1013500019F08981813011F58C819D8128EE33E06F
:10136000B9010E944545CB019093BA038093B9031C
:101370008091B9039091BA032AE030E0B9010E944C
:101380004545C0969093510C8093500C8091500C21
:101390009091510C0E94A60781E089838E819F81E4
:1013A0008330910519F08981813011F58C819D81FF
:1013B00024E630E0B9010E944545CB019093BA0381
:1013C0008093B9038091B9039091BA032AE030E089
:1013D000B9010E944545C0969093370C8093360C16
:1013E0008091360C9091370C0E94A60781E089838A
:1013F0008E819F818230910519F08981813011F5AC
:101400008C819D812AE030E0B9010E944545CB01E5
:101410009093BA038093B9038091B9039091BA0372
:101420002AE030E0B9010E944545C09690932D080E
:1014300080932C0880912C0890912D080E94A6077B
:1014400081E089838E819F818130910519F08981A6
:10145000813091F48C819D812AE030E0B9010E94B5
:101460004545C09690934F0C80934E0C80914E0C46
:1014700090914F0C0E94A6078E819F818630910526
:101480001CF085E40E94A60727960FB6F894DEBFED
:101490000FBECDBFCF91DF910895DF93CF93CDB72E
:1014A000DEB7A7E2B0E0E7E2F0E08081876F8C93DF
:1014B000A8E2B0E0E8E2F0E0808180788C93CF9100
:1014C000DF910895DF93CF93CDB7DEB72D970FB699
:1014D000F894DEBF0FBECDBF9D878C8780915003EF
:1014E000909151038430910529F482E061E00E94DB
:1014F00027090FC0809150039091510388309105C6
:1015000041F481E061E00E9427091092510310929A
:101510005003809150039091510301969093510391
:10152000809350038C859D859E012E5F3F4FB901AE
:101530004AE050E00E941445CE0102960E940A093A
:1015400084E192E0898389810E94A6072D960FB6D7
:10155000F894DEBF0FBECDBFCF91DF910895DF932A
:10156000CF930F920F92CDB7DEB79A83898388EC21
:1015700097E029813A81B9010E94044588EC97E0FF
:101580000E940B458853984F26E132E0B90140E1B3
:1015900050E00E94F4440E94280681E061E00E942D
:1015A000270988EC97E00E940A0981E090E0909377
:1015B000530C8093520C81E090E09093B0038093A1
:1015C000AF030F900F90CF91DF910895DF93CF93EA
:1015D000CDB7DEB7A7E2B0E0E7E2F0E08081886057
:1015E0008C93A8E2B0E0E8E2F0E08081877F8C9302
:1015F000CF91DF910895DF93CF930F92CDB7DEB7F0
:101600001982E6E2F0E0808189838981886089839C
:10161000E8E2F0E0898180830F90CF91DF91089517
:10162000DF93CF930F92CDB7DEB71982E6E2F0E0F9
:10163000808189838981877F8983E8E2F0E08981DD
:1016400080830F90CF91DF910895DF93CF93CDB733
:10165000DEB760970FB6F894DEBF0FBECDBF988B94
:101660008F870E94FB0A8F859889AA2797FDA095EE
:10167000BA2FBC01CD010E94B340DC01CB018B87A6
:101680009C87AD87BE876B857C858D859E852DEC7F
:101690003CEC4CE255E40E947D3EDC01CB018F83A3
:1016A0009887A987BA876F81788589859A8520E090
:1016B00030E040E85FE30E94834088232CF481E01F
:1016C00090E09E838D833FC06F81788589859A8560
:1016D00020E03FEF4FE757E40E94234018164CF5F7
:1016E0006B857C858D859E8520E030E040E251E46D
:1016F0000E947D3EDC01CB01BC01CD010E94422C49
:10170000DC01CB019E838D830FC084E191E09C833B
:101710008B838B819C810197F1F79C838B838D81D7
:101720009E8101979E838D838D819E81009769F7AD
:1017300014C06F81788589859A850E94422CDC01CE
:10174000CB019E838D838D819E819A83898389813C
:101750009A810197F1F79A8389830E94100B609612
:101760000FB6F894DEBF0FBECDBFCF91DF910895C5
:10177000DF93CF93CDB7DEB7E1E2F1E01082E5E28F
:10178000F1E08FEF8083E4E2F1E081E08083E9E241
:10179000F1E01082E8E2F1E08FEF8083EBE2F1E02C
:1017A0001082EAE2F1E08FEF8083EDE2F1E0108257
:1017B000ECE2F1E08FEF8083E0E2F1E089EA808300
:1017C000E1E2F1E08BE08083CF91DF9108958F9289
:1017D0009F92AF92BF92CF92DF92EF92FF920F93C0
:1017E0001F93DF93CF93CDB7DEB72C970FB6F89446
:1017F000DEBF0FBECDBF9A8789877C876B8729851F
:101800003A8583E39BE2AC01249FC001259F900DA4
:10181000349F900D11249A838983990F880B982FF8
:101820008B838C838D838E838F838887E1E9F0E0BF
:1018300010820F2EF5E98F2E9924F02DA980BA8001
:10184000CB80DC80ED80FE800F8118852A2D3B2D1A
:101850004C2D5D2D6E2D7F2D802F912FAA24AA94C3
:10186000BB24CC24DD24EE24FF2400E010E00E9401
:101870006E2CA22EB32EC42ED52EE62EF72E082FB8
:10188000192F2A2D3B2D4C2D5D2D6E2D7F2D802F58
:10189000912F822F8095F40180830F2EF4E98F2EF3
:1018A0009924F02DA980BA80CB80DC80ED80FE8069
:1018B0000F8118852A2D3B2D4C2D5D2D6E2D7F2DF2
:1018C000802F912FAA24AA94BB24CC24DD24EE24BB
:1018D000FF2400E010E00E949634A22EB32EC42E06
:1018E000D52EE62EF72E082F192F2A2D3B2D4C2D05
:1018F0005D2D6E2D7F2D802F912F822F8095F401ED
:101900008083E1E9F0E085E080838B859C8590937E
:10191000390C8093380C2C960FB6F894DEBF0FBEAE
:10192000CDBFCF91DF911F910F91FF90EF90DF908E
:10193000CF90BF90AF909F908F9008958F929F927D
:10194000AF92BF92CF92DF92EF92FF920F931F93CD
:10195000DF93CF93CDB7DEB72C970FB6F894DEBFE9
:101960000FBECDBF9A8789877C876B8729853A858B
:1019700083E39BE2AC01249FC001259F900D349F1F
:10198000900D11249A838983990F880B982F8B834C
:101990008C838D838E838F838887E1E8F0E01082CB
:1019A0000F2EF5E88F2E9924F02DA980BA80CB80D8
:1019B000DC80ED80FE800F8118852A2D3B2D4C2D7B
:1019C0005D2D6E2D7F2D802F912FAA24AA94BB24EC
:1019D000CC24DD24EE24FF2400E010E00E946E2CD5
:1019E000A22EB32EC42ED52EE62EF72E082F192F99
:1019F0002A2D3B2D4C2D5D2D6E2D7F2D802F912F6F
:101A0000822F8095F40180830F2EF4E88F2E992485
:101A1000F02DA980BA80CB80DC80ED80FE800F8124
:101A200018852A2D3B2D4C2D5D2D6E2D7F2D802F61
:101A3000912FAA24AA94BB24CC24DD24EE24FF24D5
:101A400000E010E00E949634A22EB32EC42ED52EB4
:101A5000E62EF72E082F192F2A2D3B2D4C2D5D2D0C
:101A60006E2D7F2D802F912F822F8095F401808302
:101A7000E1E8F0E085E080838B859C859093C50745
:101A80008093C4072C960FB6F894DEBF0FBECDBF6F
:101A9000CF91DF911F910F91FF90EF90DF90CF904A
:101AA000BF90AF909F908F900895DF93CF93CDB765
:101AB000DEB7E1EAF0E01082E5EAF0E08FEE808345
:101AC000E4EAF0E01082E9EAF0E01082E8EAF0E00F
:101AD0001082EBEAF0E01082EAEAF0E01082EDEA30
:101AE000F0E01082ECEAF0E01082E7EAF0E0108229
:101AF000E6EAF0E01082E0EAF0E01082E2EAF0E0EC
:101B00001082E1EAF0E085E08083CF91DF910895D3
:101B1000DF93CF93CDB7DEB728970FB6F894DEBF2B
:101B20000FBECDBF9E838D838D819E8198878F83CD
:101B30002F813885332334F48F81988581509F4FCE
:101B400098878F832F813885832F992787FD9A95D2
:101B50009C838B838D819E8120E031E0B9010E94BE
:101B600059459A838983E1EAF0E01082E5EAF0E0E2
:101B70008B818083E4EAF0E089818083E9EAF0E008
:101B80001082E8EAF0E01082EBEAF0E01082EAEA84
:101B9000F0E01082EDEAF0E01082ECEAF0E0108272
:101BA000E7EAF0E01082E6EAF0E01082E0EAF0E036
:101BB0001082E2EAF0E01082E1EAF0E085E0808362
:101BC00028960FB6F894DEBF0FBECDBFCF91DF9140
:101BD0000895DF93CF93CDB7DEB7E5EAF0E088ED67
:101BE0008083E4EAF0E086E38083E1EAF0E083E0EA
:101BF0008083CF91DF910895DF93CF93CDB7DEB788
:101C0000A1E2B0E0E1E2F0E080818F608C93A2E29B
:101C1000B0E0E2E2F0E08081807F8C93AAE0B1E066
:101C2000EAE0F1E0808188618C93ABE0B1E0EBE029
:101C3000F1E0808188618C93CF91DF910895DF93EB
:101C4000CF930F920F92CDB7DEB789836A83E8E214
:101C5000F1E089818083EAE2F1E08A8180838981F1
:101C60008093B1038A818093B4030F900F90CF913A
:101C7000DF910895DF93CF930F920F92CDB7DEB728
:101C80008A8319828A818F708A83E2E2F0E0808100
:101C900089838981807F898399818A81892B89833E
:101CA000E2E2F0E0898180830F900F90CF91DF9185
:101CB0000895DF93CF93CDB7DEB786E00E943A0E4A
:101CC000CF91DF910895DF93CF93CDB7DEB789E051
:101CD0000E943A0ECF91DF910895DF93CF93CDB755
:101CE000DEB785E00E943A0ECF91DF910895DF9331
:101CF000CF93CDB7DEB78AE00E943A0ECF91DF9145
:101D00000895DF93CF93CDB7DEB784E00E943A0EFB
:101D1000CF91DF910895DF93CF93CDB7DEB782E007
:101D20000E943A0ECF91DF910895DF93CF93CDB704
:101D3000DEB781E00E943A0ECF91DF910895DF93E4
:101D4000CF93CDB7DEB788E00E943A0ECF91DF91F6
:101D50000895DF93CF93CDB7DEB780E00E943A0EAF
:101D6000CF91DF910895DF93CF93CDB7DEB7ADE28A
:101D7000B0E0EDE2F0E080818F7E8C93AEE2B0E0E7
:101D8000EEE2F0E0808180618C93CF91DF91089545
:101D9000DF93CF93CDB7DEB7ADE2B0E0EDE2F0E098
:101DA00080818F7D8C93AEE2B0E0EEE2F0E0808146
:101DB00080628C93CF91DF910895DF93CF93CDB75D
:101DC000DEB7F894AAE6B0E0EAE6F0E0808182604F
:101DD0008C93ADE3B0E0EDE3F0E0808180618C9323
:101DE0007894CF91DF910895DF93CF93CDB7DEB78D
:101DF000F894AAE6B0E0EAE6F0E0808188608C938F
:101E0000ADE3B0E0EDE3F0E0808180628C93789404
:101E1000CF91DF910895DF93CF93CDB7DEB71092C6
:101E2000A1031092A2031092A3031092A403109294
:101E3000A5031092A6031092A7031092A803ADE386
:101E4000B0E0EDE3F0E080818F7E8C93CF91DF9165
:101E50000895DF93CF93CDB7DEB710929103109220
:101E60009203109293031092940310929503109290
:101E700096031092970310929803ADE3B0E0EDE360
:101E8000F0E080818F7D8C93CF91DF910895EF9268
:101E9000FF920F931F93DF93CF93CDB7DEB72C97AD
:101EA0000FB6F894DEBF0FBECDBF6F8378878987EA
:101EB0009A875C874B878FE090E09E838D838D812E
:101EC0009E81AA2797FDA095BA2FBC01CD010E9443
:101ED000B340DC01CB01BC01CD0120E030E040E0AB
:101EE00050E40E94773FDC01CB01BC01CD012F8182
:101EF000388549855A850E94503EDC01CB017C0122
:101F00008D018D819E81AA2797FDA095BA2FBC01D6
:101F1000CD010E94B340DC01CB01BC01CD0120E02A
:101F200030E040E050EC0E94773FDC01CB01BC0187
:101F3000CD012F81388549855A850E94503EDC01AC
:101F4000CB019C01AD01C801B7010E94773FDC01C4
:101F5000CB0189839A83AB83BC838B859C8582303C
:101F6000910581F460E070E080E89FE329813A8187
:101F70004B815C810E94773FDC01CB0189839A838E
:101F8000AB83BC8389819A81AB81BC81BC01CD01CB
:101F90002C960FB6F894DEBF0FBECDBFCF91DF9168
:101FA0001F910F91FF90EF900895DF93CF93CDB7DE
:101FB000DEB780E090E0A0E8BFE38093AB039093AE
:101FC000AC03A093AD03B093AE0381E080936B03A9
:101FD00010926C0310926D0310926E0310926F03B7
:101FE000109270031092710310927203209191036A
:101FF0003091920340919303509194036091950323
:102000007091960380919703909198032093BC0759
:102010003093BD074093BE075093BF076093C0073E
:102020007093C1078093C2079093C3072091A103C7
:102030003091A2034091A3035091A4036091A503A2
:102040007091A6038091A7039091A8032093990310
:1020500030939A0340939B0350939C0360939D039A
:1020600070939E0380939F039093A0030E94590E48
:10207000CF91DF910895DF93CF93CDB7DEB780E0A6
:1020800090E0A0E8BFE38093AB039093AC03A093F0
:10209000AD03B093AE0381E080936B0310926C03A9
:1020A00010926D0310926E0310926F0310927003E2
:1020B0001092710310927203209191033091920358
:1020C000409193035091940360919503709196030E
:1020D00080919703909198032093BC073093BD079C
:1020E0004093BE075093BF076093C0077093C1072A
:1020F0008093C2079093C3072091A1033091A2035C
:102100004091A3035091A4036091A5037091A6038D
:102110008091A7039091A8032093990330939A0389
:1021200040939B0350939C0360939D0370939E0385
:1021300080939F039093A0030E94630ECF91DF9141
:1021400008951F93DF93CF93CDB7DEB762970FB695
:10215000F894DEBF0FBECDBF6D877E878F87988BCB
:102160005A8B498B8D859E85AF85B88929893A8997
:10217000BC01CD01A9010E94470FDC01CB01898779
:102180009A87AB87BC8781E080936B0310926C03C6
:1021900010926D0310926E0310926F0310927003F1
:1021A000109271031092720389859A85AB85BC8564
:1021B0008093AB039093AC03A093AD03B093AE03B5
:1021C00086E98093B10386E98093B40369857A85B3
:1021D0008B859C8520E030E040E85FE30E9423404F
:1021E00018160CF04EC08091B403882F90E0A0E048
:1021F000B0E0BC01CD010E946541DC01CB018983C7
:102200009A83AB83BC8369817A818B819C81298588
:102210003A854B855C850E947D3EDC01CB018D8338
:102220009E83AF83B8876D817E818F81988520E002
:1022300030E04EE753E40E94234018160CF06DC0C6
:102240008091B103882F90E0A0E0B0E0BC01CD0107
:102250000E946541DC01CB018D839E83AF83B887EB
:102260006D817E818F81988529853A854B855C8536
:102270000E94773FDC01CB0189839A83AB83BC83C7
:102280004CC08091B103882F90E0A0E0B0E0BC0189
:10229000CD010E946541DC01CB018D839E83AF831C
:1022A000B8876D817E818F81988529853A854B8598
:1022B0005C850E94773FDC01CB0189839A83AB83E5
:1022C000BC8369817A818B819C8120E030E04EE77C
:1022D00053E40E942340181604F58091B403882F1C
:1022E00090E0A0E0B0E0BC01CD010E946541DC01BE
:1022F000CB0189839A83AB83BC8369817A818B818B
:102300009C8129853A854B855C850E947D3EDC0158
:10231000CB018D839E83AF83B8872091A103309139
:10232000A2034091A3035091A4036091A50370916F
:10233000A6038091A7039091A8032093990330935B
:102340009A0340939B0350939C0360939D03709367
:102350009E0380939F039093A0032091910330915B
:10236000920340919303509194036091950370916F
:10237000960380919703909198032093BC07309324
:10238000BD074093BE075093BF076093C00770938B
:10239000C1078093C2079093C3076D817E818F81AF
:1023A00098850E94422CDC01CB01182F69817A812B
:1023B0008B819C810E94422CDC01CB01982F812FC4
:1023C000692F0E941F0E0E94590E62960FB6F89454
:1023D000DEBF0FBECDBFCF91DF911F910895DF9378
:1023E000CF93CDB7DEB72F970FB6F894DEBF0FBEF1
:1023F000CDBF8F87E6E3F1E08F85808380E090E0BA
:10240000A0E0B0E48B879C87AD87BE876B857C8519
:102410008D859E852DEC3CEC4CE255E40E947D3E82
:10242000DC01CB018F839887A987BA876F81788574
:1024300089859A8520E030E040E85FE30E94834090
:1024400088232CF481E090E09E838D833FC06F81D0
:10245000788589859A8520E03FEF4FE757E40E9411
:10246000234018164CF56B857C858D859E8520E074
:1024700030E040E251E40E947D3EDC01CB01BC0132
:10248000CD010E94422CDC01CB019E838D830FC0C5
:1024900084E191E09C838B838B819C810197F1F790
:1024A0009C838B838D819E8101979E838D838D81FB
:1024B0009E81009769F714C06F81788589859A8518
:1024C0000E94422CDC01CB019E838D838D819E81F5
:1024D0009A83898389819A810197F1F79A83898305
:1024E0002F960FB6F894DEBF0FBECDBFCF91DF9110
:1024F0000895DF93CF9300D0CDB7DEB78B8383E011
:1025000090E00E94EF439A838983E981FA811282E5
:102510001182E981FA818B818083809154039091AB
:102520005503009739F489819A81909355038093DC
:1025300054030EC0E0915403F091550389819A81B0
:102540009283818389819A81909355038093540368
:102550008091520390915303009741F4809154036A
:102560009091550390935303809352030F900F90D3
:102570000F90CF91DF9108951F920F920FB60F9297
:1025800000905B000F9211242F933F934F935F9322
:102590006F937F938F939F93AF93BF93EF93FF932B
:1025A000DF93CF93CDB7DEB72E97DEBFCDBF80913F
:1025B000850390918603E6E3F1E02081FC01E55478
:1025C000FC4F208380918503909186030196909320
:1025D000860380938503809185039091860324E090
:1025E0008030920721F41092860310928503209187
:1025F000850330918603809183039091840328178B
:10260000390709F078C00E94FB0A86E292E00E9436
:102610000A0980E090E4ACE9B5E48B879C87AD873C
:10262000BE876B857C858D859E852DEC3CEC4CE2D0
:1026300055E40E947D3EDC01CB018F839887A987FA
:10264000BA876F81788589859A8520E030E040E8F7
:102650005FE30E94834088232CF481E090E09E8316
:102660008D833FC06F81788589859A8520E03FEF13
:102670004FE757E40E94234018164CF56B857C8584
:102680008D859E8520E030E040E251E40E947D3E51
:10269000DC01CB01BC01CD010E94422CDC01CB014D
:1026A0009E838D830FC084E191E09C838B838B811B
:1026B0009C810197F1F79C838B838D819E8101978B
:1026C0009E838D838D819E81009769F714C06F81F1
:1026D000788589859A850E94422CDC01CB019E83F6
:1026E0008D838D819E819A83898389819A810197C7
:1026F000F1F79A8389832E96DEBFCDBFCF91DF910C
:10270000FF91EF91BF91AF919F918F917F916F91C9
:102710005F914F913F912F910F9000925B000F902E
:102720000FBE0F901F901895DF93CF93CDB7DEB7F4
:10273000E1E3F1E01082E0E3F1E01082E2E3F1E0B6
:1027400086E08083E4E3F1E087E48083E5E3F1E081
:102750001082E1E3F1E088E98083CF91DF91089571
:102760001F920F920FB60F9200905B000F921124F0
:102770002F933F934F935F936F937F938F939F9389
:10278000AF93BF93EF93FF93DF93CF930F920F928B
:10279000CDB7DEB7E6EDF0E080818093300883E0CE
:1027A00090E00E94EF439A838983E981FA81128243
:1027B000118280913008E981FA81808381E090E084
:1027C000909357038093560380915403909155033F
:1027D000009739F489819A8190935503809354032B
:1027E0000EC0E0915403F091550389819A81928340
:1027F000818389819A8190935503809354038091BA
:10280000520390915303009741F4809154039091A7
:102810005503909353038093520380913E0290910D
:102820003F02019790933F0280933E0280913E02C7
:1028300090913F02009709F053C080918F039091CF
:102840009003009701F588EE93E00E94250B80919C
:102850003008882F90E0807C9070009739F481E0F8
:1028600090E09093900380938F0306C081E090E006
:1028700090937A038093790381E090E090933F02F4
:1028800080933E022DC080918F0390919003813000
:10289000910579F480913008882F90E090933F0261
:1028A00080933E0282E090E09093900380938F03A8
:1028B00017C080918F03909190038230910581F42D
:1028C00081E090E090933F0280933E02109290034B
:1028D00010928F0381E090E090937A0380937903C4
:1028E0000F900F90CF91DF91FF91EF91BF91AF913A
:1028F0009F918F917F916F915F914F913F912F9118
:102900000F9000925B000F900FBE0F901F901895D4
:102910000F931F93DF93CF93CDB7DEB7AE970FB66C
:10292000F894DEBF0FBECDBF9EA78DA781E061E00A
:102930000E942709E6EDF0E083E2808380E090E0EA
:10294000A0E8BFE38FA398A7A9A7BAA76FA178A50E
:1029500089A59AA52DEC3CEC4CE255E40E947D3E05
:10296000DC01CB018BA39CA3ADA3BEA36BA17CA177
:102970008DA19EA120E030E040E85FE30E9483400B
:1029800088232CF481E090E09AA389A33FC06BA137
:102990007CA18DA19EA120E03FEF4FE757E40E946C
:1029A000234018164CF56FA178A589A59AA520E0BB
:1029B00030E040E251E40E947D3EDC01CB01BC01ED
:1029C000CD010E94422CDC01CB019AA389A30FC048
:1029D00084E191E098A38F8F8F8D98A10197F1F7F3
:1029E00098A38F8F89A19AA101979AA389A389A1FE
:1029F0009AA1009769F714C06BA17CA18DA19EA13B
:102A00000E94422CDC01CB019AA389A389A19AA13F
:102A10009E8F8D8F8D8D9E8D0197F1F79E8F8D8F5F
:102A20001CA61BA682C0A6EDB0E02BA53CA58DA5DB
:102A30009EA5FC01E20FF31F80818C9380E090E063
:102A4000A0E8BFE3898F9A8FAB8FBC8F698D7A8D99
:102A50008B8D9C8D2DEC3CEC4CE255E40E947D3E30
:102A6000DC01CB018D8B9E8BAF8BB88F6D897E89FE
:102A70008F89988D20E030E040E85FE30E9483403A
:102A800088232CF481E090E09C8B8B8B3FC06D8978
:102A90007E898F89988D20E03FEF4FE757E40E94B1
:102AA000234018164CF5698D7A8D8B8D9C8D20E016
:102AB00030E040E251E40E947D3EDC01CB01BC01EC
:102AC000CD010E94422CDC01CB019C8B8B8B0FC073
:102AD00084E191E09A8B898B89899A890197F1F732
:102AE0009A8B898B8B899C8901979C8B8B8B8B898B
:102AF0009C89009769F714C06D897E898F89988DAC
:102B00000E94422CDC01CB019C8B8B8B8B899C8996
:102B1000988B8F878F8598890197F1F7988B8F878E
:102B20008BA59CA501969CA78BA70BA51CA58DA585
:102B30009EA50E940B450817190708F474CFE6ED0F
:102B4000F0E083E2808380E090E0A0E8BFE38B8741
:102B50009C87AD87BE876B857C858D859E852DEC9A
:102B60003CEC4CE255E40E947D3EDC01CB018F83BE
:102B70009887A987BA876F81788589859A8520E0AB
:102B800030E040E85FE30E94834088232CF481E03A
:102B900090E09E838D833FC06F81788589859A857B
:102BA00020E03FEF4FE757E40E94234018164CF512
:102BB0006B857C858D859E8520E030E040E251E488
:102BC0000E947D3EDC01CB01BC01CD010E94422C64
:102BD000DC01CB019E838D830FC084E191E09C8357
:102BE0008B838B819C810197F1F79C838B838D81F3
:102BF0009E8101979E838D838D819E81009769F7C9
:102C000014C06F81788589859A850E94422CDC01E9
:102C1000CB019E838D838D819E819A838983898157
:102C20009A810197F1F79A838983AE960FB6F8944B
:102C3000DEBF0FBECDBFCF91DF911F910F910895E1
:102C4000DF93CF93CDB7DEB7E9970FB6F894DEBF29
:102C50000FBECDBF89AF81E061E00E942709E6ED9C
:102C6000F0E083E2808380E090E0A0E8BFE38DABFA
:102C70009EABAFABB8AF6DA97EA98FA998AD2DEC77
:102C80003CEC4CE255E40E947D3EDC01CB0189AB7B
:102C90009AABABABBCAB69A97AA98BA99CA920E084
:102CA00030E040E85FE30E94834088232CF481E019
:102CB00090E098AB8FA73FC069A97AA98BA99CA97E
:102CC00020E03FEF4FE757E40E94234018164CF5F1
:102CD0006DA97EA98FA998AD20E030E040E251E4D3
:102CE0000E947D3EDC01CB01BC01CD010E94422C43
:102CF000DC01CB0198AB8FA70FC084E191E09EA7C8
:102D00008DA78DA59EA50197F1F79EA78DA78FA5ED
:102D100098A9019798AB8FA78FA598A9009769F7F5
:102D200014C069A97AA98BA99CA90E94422CDC0134
:102D3000CB0198AB8FA78FA598A99CA78BA78BA534
:102D40009CA50197F1F79CA78BA70E942806E6EDAA
:102D5000F0E089AD808389AD882F90E00E94620AFF
:102D600080E090E0A0E8BFE38FA398A7A9A7BAA747
:102D70006FA178A589A59AA52DEC3CEC4CE255E411
:102D80000E947D3EDC01CB018BA39CA3ADA3BEA31F
:102D90006BA17CA18DA19EA120E030E040E85FE323
:102DA0000E94834088232CF481E090E09AA389A3B9
:102DB0003FC06BA17CA18DA19EA120E03FEF4FE71A
:102DC00057E40E94234018164CF56FA178A589A5F9
:102DD0009AA520E030E040E251E40E947D3EDC0113
:102DE000CB01BC01CD010E94422CDC01CB019AA396
:102DF00089A30FC084E191E098A38F8F8F8D98A154
:102E00000197F1F798A38F8F89A19AA101979AA3AF
:102E100089A389A19AA1009769F714C06BA17CA12D
:102E20008DA19EA10E94422CDC01CB019AA389A313
:102E300089A19AA19E8F8D8F8D8D9E8D0197F1F71F
:102E40009E8F8D8F80E090E0A0E8BFE3898F9A8FFE
:102E5000AB8FBC8F698D7A8D8B8D9C8D2DEC3CEC6E
:102E60004CE255E40E947D3EDC01CB018D8B9E8BB4
:102E7000AF8BB88F6D897E898F89988D20E030E087
:102E800040E85FE30E94834088232CF481E090E0D7
:102E90009C8B8B8B3FC06D897E898F89988D20E0BC
:102EA0003FEF4FE757E40E94234018164CF5698D19
:102EB0007A8D8B8D9C8D20E030E040E251E40E94C1
:102EC0007D3EDC01CB01BC01CD010E94422CDC0126
:102ED000CB019C8B8B8B0FC084E191E09A8B898B0B
:102EE00089899A890197F1F79A8B898B8B899C89BB
:102EF00001979C8B8B8B8B899C89009769F714C0F9
:102F00006D897E898F89988D0E94422CDC01CB01CE
:102F10009C8B8B8B8B899C89988B8F878F859889CD
:102F20000197F1F7988B8F87E6EDF0E083E28083DD
:102F300080E090E0A0E8BFE38B879C87AD87BE87E9
:102F40006B857C858D859E852DEC3CEC4CE255E4B3
:102F50000E947D3EDC01CB018F839887A987BA87C9
:102F60006F81788589859A8520E030E040E85FE3CD
:102F70000E94834088232CF481E090E09E838D831F
:102F80003FC06F81788589859A8520E03FEF4FE7C4
:102F900057E40E94234018164CF56B857C858D857F
:102FA0009E8520E030E040E251E40E947D3EDC015D
:102FB000CB01BC01CD010E94422CDC01CB019E83E0
:102FC0008D830FC084E191E09C838B838B819C81F6
:102FD0000197F1F79C838B838D819E8101979E835E
:102FE0008D838D819E81009769F714C06F817885EC
:102FF00089859A850E94422CDC01CB019E838D83BA
:103000008D819E819A83898389819A810197F1F7C5
:103010009A838983E9960FB6F894DEBF0FBECDBFC1
:10302000CF91DF910895DF93CF930F92CDB7DEB7A5
:10303000898389810E94EF110F90CF91DF910895CC
:10304000DF93CF9300D0CDB7DEB79B838A838A818D
:103050009B81990F880B982F898389810E94EF119A
:103060008A819B81990F880B982F898389810E947F
:10307000EF118A819B81892F9927898389810E94F9
:10308000EF118A81898389810E94EF110F900F903F
:103090000F90CF91DF910895DF93CF93CDB7DEB737
:1030A000E0E3F0E01082E1E3F0E01082E7E0F1E03D
:1030B0001082E8E0F1E01082CF91DF910895DF9374
:1030C000CF93CDB7DEB7EAE7F0E01082EBE7F0E0B0
:1030D0001082ECE7F0E080E28083E0E5F0E080E859
:1030E0008083EAE7F0E086E88083CF91DF9108955E
:1030F000DF93CF930F920F92CDB7DEB78A838A8189
:10310000883020F0EBE7F0E088E080838A818770E8
:103110008A83ECE7F0E08A8180628083AAE7B0E0EE
:10312000EAE7F0E0808180648C93EAE7F0E0808158
:10313000882F90E0807190700097B9F3E9E7F0E094
:1031400080818983AAE7B0E0EAE7F0E080818061CE
:103150008C93EBE7F0E0108289810F900F90CF9174
:10316000DF910895DF93CF9300D0CDB7DEB7898389
:103170006A834B838B810E9478188093BB07809170
:10318000BB07282F30E089816A81A90123E030E064
:103190000E9469090F900F900F90CF91DF910895D1
:1031A0001F920F920FB60F9211242F933F934F93BC
:1031B0005F936F937F938F939F93AF93BF93DF93AF
:1031C000CF93CDB7DEB7AB97DEBFCDBF8091750390
:1031D0009091760301969093760380937503809186
:1031E00091038983909192039A83809193038B83B7
:1031F000909194039C83809195038D839091960385
:103200009E83809197038F8390919803988781E0A4
:1032100089871A861B861C861D861E861F86188A2D
:1032200099818985980F998B91E0998F89899981E6
:10323000891708F0198E8A819A85890F8A8B81E017
:103240008A8F9A898A81981708F01A8E998D8A89AF
:10325000980F9B8F91E09C8F8B8D9A89891708F02E
:103260001C8E8A8D9C8D892B8A8F8B8D8A8B9B815E
:103270008B85980F9B8B91E09D8F8B899B81891704
:1032800008F01D8E8A8D9B89890F8E8F81E08F8F2C
:103290009E8D8B89981708F01F8E9D8D8F8D982B92
:1032A0009D8F9E8D9B8B8C819C85890F8C8B81E063
:1032B00088A39C898C81981708F018A29D8D8C8911
:1032C000980F99A391E09AA389A19C89891708F086
:1032D0001AA288A19AA1892B88A389A18C8B9D8190
:1032E0008D85980F9D8B91E09BA38D899D8189177A
:1032F00008F01BA288A19D89890F8CA381E08DA372
:103300009CA18D89981708F01DA29BA18DA1982BD7
:103310009BA39CA19D8B8E819E85890F8E8B81E0C6
:103320008EA39E898E81981708F01EA29BA18E897C
:10333000980F9FA391E098A78FA19E89891708F005
:1033400018A68EA198A5892B8EA38FA18E8B9F8105
:103350008F85980F9F8B91E099A78F899F818917FF
:1033600008F019A68EA19F89890F8AA781E08BA7F3
:103370009AA58F89981708F01BA699A58BA5982B5D
:1033800099A79AA59F8B88859889890F888F89A589
:10339000988D890F888F29893A894B895C896D8935
:1033A0007E898F89988D2093910330939203409367
:1033B00093035093940360939503709396038093C3
:1033C00097039093980380915E0390915F03A0917F
:1033D0006003B09161030196A11DB11D80935E034E
:1033E00090935F03A0936003B0936103AB96DEBF3D
:1033F000CDBFCF91DF91BF91AF919F918F917F9181
:103400006F915F914F913F912F910F900FBE0F9051
:103410001F9018951F920F920FB60F9211242F93A1
:103420003F934F935F936F937F938F939F93AF934C
:10343000BF93DF93CF93CDB7DEB7AB97DEBFCDBFE2
:103440008091730390917403019690937403809319
:1034500073038091A10389839091A2039A83809141
:10346000A3038B839091A4039C838091A5038D83F8
:103470009091A6039E838091A7038F839091A803C8
:10348000988781E089871A861B861C861D861E8682
:103490001F86188A99818985980F998B91E0998F59
:1034A00089899981891708F0198E8A819A85890FEF
:1034B0008A8B81E08A8F9A898A81981708F01A8E00
:1034C000998D8A89980F9B8F91E09C8F8B8D9A891B
:1034D000891708F01C8E8A8D9C8D892B8A8F8B8D85
:1034E0008A8B9B818B85980F9B8B91E09D8F8B891D
:1034F0009B81891708F01D8E8A8D9B89890F8E8F7D
:1035000081E08F8F9E8D8B89981708F01F8E9D8D7F
:103510008F8D982B9D8F9E8D9B8B8C819C85890F89
:103520008C8B81E088A39C898C81981708F018A265
:103530009D8D8C89980F99A391E09AA389A19C896C
:10354000891708F01AA288A19AA1892B88A389A1BA
:103550008C8B9D818D85980F9D8B91E09BA38D8990
:103560009D81891708F01BA288A19D89890F8CA3D2
:1035700081E08DA39CA18D89981708F01DA29BA1C5
:103580008DA1982B9BA39CA19D8B8E819E85890FDD
:103590008E8B81E08EA39E898E81981708F01EA2E3
:1035A0009BA18E89980F9FA391E098A78FA19E89D8
:1035B000891708F018A68EA198A5892B8EA38FA134
:1035C0008E8B9F818F85980F9F8B91E099A78F8914
:1035D0009F81891708F019A68EA19F89890F8AA754
:1035E00081E08BA79AA58F89981708F01BA699A54B
:1035F0008BA5982B99A79AA59F8B88859889890F69
:10360000888F89A5988D890F888F29893A894B8958
:103610005C896D897E898F89988D2093A103309371
:10362000A2034093A3035093A4036093A503709354
:10363000A6038093A7039093A80380915A039091C7
:103640005B03A0915C03B0915D030196A11DB11DC8
:1036500080935A0390935B03A0935C03B0935D0344
:10366000AB96DEBFCDBFCF91DF91BF91AF919F9160
:103670008F917F916F915F914F913F912F910F901B
:103680000FBE0F901F9018951F920F920FB60F92BA
:1036900000905B000F9211242F933F934F935F9301
:1036A0006F937F938F939F93AF93BF93EF93FF930A
:1036B000DF93CF93CDB7DEB7E091380CF091390CA2
:1036C0001995CF91DF91FF91EF91BF91AF919F91AC
:1036D0008F917F916F915F914F913F912F910F90BB
:1036E00000925B000F900FBE0F901F9018951F92D5
:1036F0000F920FB60F9200905B000F9211242F9340
:103700003F934F935F936F937F938F939F93AF9369
:10371000BF93EF93FF93DF93CF93CDB7DEB7E091E5
:10372000C407F091C5071995CF91DF91FF91EF91F3
:10373000BF91AF919F918F917F916F915F914F91C9
:103740003F912F910F9000925B000F900FBE0F9052
:103750001F9018951F920F920FB60F9200905B006A
:103760000F9211248F939F93EF93FF93DF93CF9347
:10377000CDB7DEB780918B0390918C03009739F021
:1037800010928C0310928B03E1EAF0E01082CF914B
:10379000DF91FF91EF919F918F910F9000925B00CD
:1037A0000F900FBE0F901F901895DF93CF93CDB75A
:1037B000DEB7CF91DF910895DF93CF93CDB7DEB71A
:1037C0000E94A90E10927B03CF91DF910895DF93A1
:1037D000CF93CDB7DEB70E94280681E061E043E0D9
:1037E0000E94B21881E065E042E00E94B21881E0D8
:1037F00069E041E00E94B218CF91DF910895DF9314
:10380000CF93CDB7DEB783E00E947818809366032C
:1038100082E00E9478188093670381E00E94781804
:103820008093680386E00E94781880936A03CF91A2
:10383000DF910895DF93CF93CDB7DEB710925A038F
:1038400010925B0310925C0310925D0310925E0372
:1038500010925F031092600310926103CF91DF9189
:103860000895DF93CF930F92CDB7DEB70E94FF1B71
:10387000109258030E94E71B80916703883088F4F8
:1038800080916603883068F480916803883048F43A
:1038900080917C03882329F00E94DC1B81E00E9438
:1038A000131880916A03803F28F40E94A90E0E9499
:1038B000FB0AB3C080916603803198F08091670362
:1038C0008F3078F480916803803158F00E94590E4F
:1038D00086E966E90E941F0E109259030E94100BA0
:1038E0009CC0809166038F3098F4809167038F307D
:1038F00078F480916803803158F00E94590E88E76F
:1039000066E90E941F0E109259030E94100B85C099
:10391000809166038F30C0F4809167038031A0F0FE
:1039200080916803803180F0E2E2F0E085E08083FE
:1039300082E362E80E941F0E83E0809337021092B8
:1039400059030E94100B69C080916603803198F082
:10395000809167038F3078F4809168038F3058F43A
:103960000E94590E86E968E70E941F0E10925903C3
:103970000E94100B52C0809166038031C0F080918C
:1039800067038031A0F0809168038F3080F4E2E219
:10399000F0E08AE0808382E862E30E941F0E81E00B
:1039A00080933702109259030E94100B36C00E9478
:1039B000100B809159038230D8F080913702833008
:1039C00021F485E00E943A0E07C0809137028130D1
:1039D00019F48AE00E943A0E84E664E60E941F0E03
:1039E0000E94E71B0E94FF1B809167038F30C0F786
:1039F00080915903823030F480915903982F9F5F52
:103A0000998302C082E089839981909359030E942F
:103A1000590E80E060E00E941F0E0F90CF91DF9161
:103A20000895DF93CF93CDB7DEB781E080937B031A
:103A30000E94311CCF91DF910895DF93CF93CDB7D2
:103A4000DEB72E970FB6F894DEBF0FBECDBF0E9433
:103A5000100B8AE00E943A0E84E664E60E941F0E74
:103A600080E090E0AAE7B4E48B879C87AD87BE87AF
:103A70006B857C858D859E852DEC3CEC4CE255E478
:103A80000E947D3EDC01CB018F839887A987BA878E
:103A90006F81788589859A8520E030E040E85FE392
:103AA0000E94834088232CF481E090E09E838D83E4
:103AB0003FC06F81788589859A8520E03FEF4FE789
:103AC00057E40E94234018164CF56B857C858D8544
:103AD0009E8520E030E040E251E40E947D3EDC0122
:103AE000CB01BC01CD010E94422CDC01CB019E83A5
:103AF0008D830FC084E191E09C838B838B819C81BB
:103B00000197F1F79C838B838D819E8101979E8322
:103B10008D838D819E81009769F714C06F817885B0
:103B200089859A850E94422CDC01CB019E838D837E
:103B30008D819E819A83898389819A810197F1F78A
:103B40009A8389830E94E71B0E94FF1B8091670371
:103B50008F30C0F780E060E00E941F0E2E960FB6F7
:103B6000F894DEBF0FBECDBFCF91DF910895DF93F4
:103B7000CF93CDB7DEB72E970FB6F894DEBF0FBE4A
:103B8000CDBF0E94100B85E00E943A0E84E664E6E9
:103B90000E941F0E80E090E0AAE7B4E48B879C8728
:103BA000AD87BE876B857C858D859E852DEC3CEC35
:103BB0004CE255E40E947D3EDC01CB018F83988767
:103BC000A987BA876F81788589859A8520E030E05A
:103BD00040E85FE30E94834088232CF481E090E07A
:103BE0009E838D833FC06F81788589859A8520E08B
:103BF0003FEF4FE757E40E94234018164CF56B85C2
:103C00007C858D859E8520E030E040E251E40E9475
:103C10007D3EDC01CB01BC01CD010E94422CDC01C8
:103C2000CB019E838D830FC084E191E09C838B83C5
:103C30008B819C810197F1F79C838B838D819E8181
:103C400001979E838D838D819E81009769F714C0B3
:103C50006F81788589859A850E94422CDC01CB0191
:103C60009E838D838D819E819A83898389819A81A8
:103C70000197F1F79A8389830E94E71B0E94FF1B3B
:103C8000809167038F30C0F780E060E00E941F0ED4
:103C90002E960FB6F894DEBF0FBECDBFCF91DF9149
:103CA0000895DF93CF930F92CDB7DEB789830E943B
:103CB0001A1C0E94590E84E664E60E941F0EE5E07D
:103CC000F1E010820E94FF1B0E94E71B80916A03B3
:103CD000803F28F40E94A90E0E94FB0A04C00E94A3
:103CE000590E0E94100B20915A0330915B034091B2
:103CF0005C0350915D0380915E0390915F03A091FE
:103D00006003B0916103280F391F4A1F5B1FDA015E
:103D1000C901880F991FAA1FBB1F880F991FAA1FCF
:103D2000BB1FBA01A901480F591F6A1F7B1F898158
:103D3000882F90E09C01220F331FC901880F991F23
:103D4000880F991F820F931FAA2797FDA095BA2F5E
:103D500084179507A607B70708F0B4CF80E060E0A6
:103D60000E941F0E0F90CF91DF910895DF93CF93A4
:103D7000CDB7DEB70E94DD0E0E94F40E10925A03FA
:103D800010925B0310925C0310925D0310925E032D
:103D900010925F031092600310926103CF91DF9144
:103DA0000895DF93CF93CDB7DEB70E940B0F0E942B
:103DB000290FCF91DF910895DF93CF93CDB7DEB771
:103DC00080917D0390917E039C0140E050E08091C2
:103DD0005E0390915F03A0916003B091610382172D
:103DE0009307A407B507A0F480917D0390917E030B
:103DF0009C0140E050E080915A0390915B03A091B8
:103E00005C03B0915D0382179307A407B507B0F078
:103E10001092800310927F030E94A90E10925E03FD
:103E200010925F03109260031092610310925A0384
:103E300010925B0310925C0310925D03CF91DF91AF
:103E40000895DF93CF9300D000D0CDB7DEB79E8327
:103E50008D830E94B61E80E090E0A0E0B0E08983F0
:103E60009A83AB83BC8310927E0310927D038D8175
:103E70009E81CC01A0E0B0E0BC01CD010E94654173
:103E8000DC01CB01BC01CD0128E431EE42E850E475
:103E90000E94773FDC01CB0189839A83AB83BC838B
:103EA00069817A818B819C810E94422CDC01CB014B
:103EB00090937E0380937D0310925E0310925F03C4
:103EC000109260031092610310925A0310925B03E8
:103ED00010925C0310925D0381E090E09093800368
:103EE00080937F0302C00E94DC1E80917F0390912B
:103EF00080030097C1F726960FB6F894DEBF0FBE79
:103F0000CDBFCF91DF910895DF93CF9300D000D044
:103F1000CDB7DEB79E838D830E94B61E80E090E011
:103F2000A0E0B0E089839A83AB83BC8310927E03C8
:103F300010927D038D819E81CC01A0E0B0E0BC0198
:103F4000CD010E946541DC01CB01BC01CD0125EE14
:103F500030ED4AEA50E40E94773FDC01CB018983CF
:103F60009A83AB83BC8369817A818B819C810E9417
:103F7000422CDC01CB0190937E0380937D03109251
:103F80005E0310925F03109260031092610381E060
:103F900090E09093800380937F0326960FB6F89469
:103FA000DEBF0FBECDBFCF91DF910895DF93CF93DA
:103FB0000F920F92CDB7DEB79A8389830E94590E74
:103FC00089819A810E94841F0F900F90CF91DF9179
:103FD0000895DF93CF930F920F92CDB7DEB79A83F8
:103FE00089830E94630E89819A810E94841F0F90A9
:103FF0000F90CF91DF910895DF93CF930F920F929F
:10400000CDB7DEB79A8389830E946D0E89819A812C
:104010000E94211F0F900F90CF91DF910895DF93A1
:10402000CF930F920F92CDB7DEB79A8389830E9408
:10403000770E89819A810E94211F0F900F90CF9156
:10404000DF910895DF93CF930F920F92CDB7DEB734
:104050009A8389830E94810E89819A81880F991F92
:104060009A83898389819A810E94211F0F900F90E2
:10407000CF91DF910895DF93CF930F920F92CDB739
:10408000DEB79A8389830E948B0E89819A81880F7B
:10409000991F9A83898389819A810E94211F0F9099
:1040A0000F90CF91DF910895DF93CF930F920F92EE
:1040B000CDB7DEB79A8389830E94950E89819A8154
:1040C000880F991F9A83898389819A810E94211F71
:1040D0000F900F90CF91DF910895DF93CF930F92C0
:1040E0000F92CDB7DEB79A8389830E949F0E898194
:1040F0009A81880F991F9A83898389819A810E9466
:10410000211F0F900F90CF91DF910895DF93CF93F0
:10411000CDB7DEB7E2E2F0E080818F7080933108A6
:10412000CF91DF910895DF93CF93CDB7DEB7A2E2B1
:10413000B0E0E2E2F0E0908180913108892B8C932D
:10414000CF91DF910895DF93CF9300D00F92CDB739
:10415000DEB78BE00E947818882F90E09C838B83D9
:1041600086E00E947818882F90E09A8389838B815B
:104170009C81833891052CF489819A81803F910537
:1041800074F480916203882381F481E08093620358
:104190000E9486200E94A90E0E94FB0A06C00E946F
:1041A00093200E94100B109262030F900F900F90BB
:1041B0000F90CF91DF910895DF93CF9300D00F92AE
:1041C000CDB7DEB78BE00E947818882F90E09C83F3
:1041D0008B8386E00E947818882F90E09A838983E9
:1041E0008B819C81833891052CF489819A81803F51
:1041F000910544F481E0809363030E94A90E10921C
:10420000820304C00E94100B109263030F900F9062
:104210000F900F90CF91DF910895DF93CF93CDB79B
:10422000DEB7E4E0F1E08FEF8083E5E0F1E01082BB
:10423000CF91DF910895DF93CF93CDB7DEB70E9482
:104240004D0A0E944C180E94FC0D0E94B30E0E9461
:10425000C80E0E94E60ACF91DF910895DF93CF93B5
:10426000CDB7DEB7F8940E941B210E945F180E9410
:1042700094130E94B80B0E94550DE1EAF0E0108201
:10428000E2E7F0E081E08083E1E7F0E081E0808335
:104290007894CF91DF910895DF93CF9300D00F9260
:1042A000CDB7DEB79A838983209187033091880345
:1042B0008091890390918A032817390729F48FEF99
:1042C0009FEF9C838B8322C080918703909188030A
:1042D000FC01EE5CF74F8081E981FA818083809157
:1042E00087039091880301969093880380938703B6
:1042F000809187039091880324E08030920721F415
:1043000010928803109287031C821B828B819C81F0
:104310000F900F900F900F90CF91DF910895DF9342
:10432000CF93CDB7DEB729970FB6F894DEBF0FBE97
:10433000CDBF99878887CE0107960E944C219E8326
:104340008D838D819E812FEF8F3F920731F40E94E4
:10435000280688E392E00E940A091C821B828F8152
:10436000882F90E0E885F98591838083E885F98539
:10437000808191819C0181E090E0B9010E94D3434A
:104380009A8389831BC029813A818B819C81820F0A
:10439000931F0E944C219E838D838D819E812FEFE0
:1043A0008F3F920731F40E94280688E392E00E9432
:1043B0000A098B819C8101969C838B83E885F98512
:1043C000808191819C018B819C8182179307D8F217
:1043D00089819A8129960FB6F894DEBF0FBECDBFB2
:1043E000CF91DF910895DF93CF9300D0CDB7DEB7A3
:1043F0009A8389836B8389819A818631910529F417
:10440000E2E2F0E08B818083D1C089819A818130A2
:10441000910529F4E5E2F0E08B818083C7C08981B2
:104420009A818230910529F4E8E2F0E08B81808363
:10443000BDC089819A818330910529F4EBE2F0E0D7
:104440008B818083B3C089819A818430910529F45E
:10445000EEE2F0E08B818083A9C089819A8185306A
:10446000910529F4E1E3F0E08B8180839FC089818D
:104470009A818630910529F4E4E3F0E08B81808312
:1044800095C089819A818730910529F4E2E0F1E0B5
:104490008B8180838BC089819A818830910529F432
:1044A000E5E0F1E08B81808381C089819A81893048
:1044B000910529F4E8E0F1E08B81808377C0898160
:1044C0009A818A30910529F4EBE0F1E08B818083B9
:1044D0006DC089819A818B30910529F4E1E2F0E089
:1044E0008B81808363C089819A818C30910529F406
:1044F000E4E2F0E08B81808359C089819A818D301C
:10450000910529F4E7E2F0E08B8180834FC0898137
:104510009A818E30910529F4EAE2F0E08B81808364
:1045200045C089819A818F30910529F4EDE2F0E050
:104530008B8180833BC089819A818031910529F4E8
:10454000E0E3F0E08B81808331C089819A81813101
:10455000910529F4E3E3F0E08B81808327C0898112
:104560009A818231910529F4E3E3F0E08B81808325
:104570001DC089819A818331910529F4E4E0F1E03D
:104580008B81808313C089819A818431910529F4BC
:10459000E7E0F1E08B81808309C089819A818531D0
:1045A000910521F4EAE0F1E08B8180830F900F9078
:1045B0000F90CF91DF910895DF93CF9300D0CDB7C7
:1045C000DEB79B838A838A819B818631910529F49A
:1045D000E2E2F0E080818983D1C08A819B818130D1
:1045E000910529F4E5E2F0E080818983C7C08A81E2
:1045F0009B818230910529F4E8E2F0E08081898393
:10460000BDC08A819B818330910529F4EBE2F0E003
:1046100080818983B3C08A819B818430910529F48C
:10462000EEE2F0E080818983A9C08A819B81853098
:10463000910529F4E1E3F0E0808189839FC08A81BC
:104640009B818630910529F4E4E3F0E08081898341
:1046500095C08A819B818730910529F4E2E0F1E0E1
:10466000808189838BC08A819B818830910529F460
:10467000E5E0F1E08081898381C08A819B81893076
:10468000910529F4E8E0F1E08081898377C08A818F
:104690009B818A30910529F4EBE0F1E080818983E8
:1046A0006DC08A819B818B30910529F4E1E2F0E0B5
:1046B0008081898363C08A819B818C30910529F434
:1046C000E4E2F0E08081898359C08A819B818D304A
:1046D000910529F4E7E2F0E0808189834FC08A8167
:1046E0009B818E30910529F4EAE2F0E08081898394
:1046F00045C08A819B818F30910529F4EDE2F0E07D
:10470000808189833BC08A819B818031910529F416
:10471000E0E3F0E08081898331C08A819B8181312F
:10472000910529F4E3E3F0E08081898327C08A8141
:104730009B818231910529F4E3E3F0E08081898354
:104740001DC08A819B818331910529F4E4E0F1E069
:104750008081898313C08A819B818431910529F4EA
:10476000E7E0F1E08081898309C08A819B818531FE
:10477000910521F4EAE0F1E08081898389810E943A
:1047800013180F900F900F90CF91DF910895DF9342
:10479000CF9300D0CDB7DEB79B838A838A810E94F6
:1047A0007818898389810E9413180F900F900F90B9
:1047B000CF91DF910895DF93CF930F920F92CDB7F2
:1047C000DEB710928C0310928B0310928E0310921E
:1047D0008D0381E090E090933F0280933E0210921F
:1047E000900310928F03109284031092830310920F
:1047F000860310928503109288031092870310920B
:104800008A03109289031A8219821A82198211C0AE
:1048100089819A81FC01EE5CF74F108289819A812F
:10482000FC01E554FC4F108289819A8101969A839C
:10483000898389819A8124E0803092074CF383E058
:1048400090E090934102809340020F900F90CF919F
:10485000DF910895DF93CF93CDB7DEB7C558D04031
:104860000FB6F894DEBF0FBECDBFFE01EF57FF4F6E
:104870008083FE01EF57FF4F8081813419F40E943D
:10488000FB0AF3C5FE01EF57FF4F8081823419F414
:104890000E94100BEAC5FE01EF57FF4F8081833461
:1048A00019F40E94590EE1C5FE01EF57FF4F8081B8
:1048B000843419F40E94630ED8C5FE01EF57FF4FF0
:1048C0008081863419F40E946D0ECFC5FE01EF572A
:1048D000FF4F8081853419F40E94770EC6C5FE0112
:1048E000EF57FF4F8081873419F40E94A90EBDC590
:1048F000FE01EF57FF4F8081843299F5CE01835935
:104900009F4F0E948F21FE01E559FF4F91838083C5
:10491000FE01E559FF4F0190F081E02D8081FE01FD
:10492000E759FF4F882F90E091838083FE01E5597E
:10493000FF4F80819181FC0131968081FE01E95910
:10494000FF4F882F90E091838083FE01E759FF4F4E
:104950008081FE01E959FF4F9081692F0E941F0E4F
:1049600084C5FE01EF57FF4F8081853209F082C078
:10497000CE0181599F4F0E948F21FE01EB59FF4FBD
:1049800091838083FE01EB59FF4F0190F081E02D70
:104990008081FE01ED59FF4F882F90E09183808345
:1049A000FE01EB59FF4F80819181FC01319680819E
:1049B000FE01EF59FF4F882F90E091838083FE0125
:1049C000EF59FF4F80819181382F2227DE01AD59A9
:1049D000BF4FFE01ED59FF4F80819181820F931FE0
:1049E0008D939C930E94590E88E768E70E941F0EE2
:1049F0000EC081E090E090938C0380938B030E9423
:104A0000E90D80918B0390918C030097D1F7CB57E0
:104A1000DF4F1882C558D040FE01ED59FF4F80810D
:104A20009181009731F081E0CB57DF4F8883C558E3
:104A3000D040DE01AD59BF4FFE01ED59FF4F8081DF
:104A40009181019711969C938E93CB57DF4F88816C
:104A5000C558D040882369F60E94A90E81E00E94C3
:104A6000131810927403109273031092760310922D
:104A70007503FBC4FE01EF57FF4F8081883209F0B8
:104A800082C0CE018F589F4F0E948F21FE01E15AB4
:104A9000FF4F91838083FE01E15AFF4F0190F08127
:104AA000E02D8081FE01E35AFF4F882F90E0918333
:104AB0008083FE01E15AFF4F80819181FC01319694
:104AC0008081FE01E55AFF4F882F90E0918380831B
:104AD000FE01E55AFF4F80819181382F2227DE01A8
:104AE000A35ABF4FFE01E35AFF4F80819181820F8D
:104AF000931F8D939C930E94630E88E768E70E9442
:104B00001F0E0EC081E090E090938C0380938B0386
:104B10000E94E90D80918B0390918C030097D1F74F
:104B2000CC57DF4F1882C458D040FE01E35AFF4FE4
:104B300080819181009731F081E0CC57DF4F8883ED
:104B4000C458D040DE01A35ABF4FFE01E35AFF4FC5
:104B500080819181019711969C938E93CC57DF4F62
:104B60008881C458D040882369F60E94A90E81E04C
:104B70000E9413181092740310927303109276031C
:104B80001092750372C4FE01EF57FF4F8081863289
:104B900009F0F8C0CE018D589F4F0E948F21FE0171
:104BA000E75AFF4F9183808310926203FE01E75A18
:104BB000FF4F0190F081E02D8081FE01E95AFF4F07
:104BC000882F90E091838083FE01E75AFF4F808118
:104BD0009181FC0131968081FE01EB5AFF4F882FB5
:104BE00090E091838083FE01EB5AFF4F8081918199
:104BF000382F2227DE01A95ABF4FFE01E95AFF4F85
:104C000080819181820F931F8D939C9380E090E02F
:104C1000AAEFB3E48DAB9EABAFABB8AF6DA97EA9E5
:104C20008FA998AD2DEC3CEC4CE255E40E947D3E02
:104C3000DC01CB0189AB9AABABABBCAB69A97AA960
:104C40008BA99CA920E030E040E85FE30E9483400C
:104C500088232CF481E090E098AB8FA73FC069A92E
:104C60007AA98BA99CA920E03FEF4FE757E40E9467
:104C7000234018164CF56DA97EA98FA998AD20E0A8
:104C800030E040E251E40E947D3EDC01CB01BC01FA
:104C9000CD010E94422CDC01CB0198AB8FA70FC045
:104CA00084E191E09EA78DA78DA59EA50197F1F7C0
:104CB0009EA78DA78FA598A9019798AB8FA78FA5C1
:104CC00098A9009769F714C069A97AA98BA99CA92A
:104CD0000E94422CDC01CB0198AB8FA78FA598A92D
:104CE0009CA78BA78BA59CA50197F1F79CA78BA7E9
:104CF0000E946D0E88EC68EC0E941F0E0EC081E0D1
:104D000090E090938C0380938B030E94E90D809137
:104D10008B0390918C030097D1F7CD57DF4F18820A
:104D2000C358D040FE01E95AFF4F8081918100971E
:104D300031F081E0CD57DF4F8883C358D040DE018A
:104D4000A95ABF4FFE01E95AFF4F80819181019717
:104D500011969C938E93CD57DF4F8881C358D040D6
:104D6000882369F60E94A90E81E00E941318109210
:104D700074031092730310927603109275031092CD
:104D8000630373C3FE01EF57FF4F8081873209F041
:104D9000F6C0CE018B589F4F0E948F21FE01ED5A25
:104DA000FF4F91838083FE01ED5AFF4F0190F08108
:104DB000E02D8081FE01EF5AFF4F882F90E0918314
:104DC0008083FE01ED5AFF4F80819181FC01319675
:104DD0008081FE01E15BFF4F882F90E0918380830B
:104DE000FE01E15BFF4F80819181382F2227DE0198
:104DF000AF5ABF4FFE01EF5AFF4F80819181820F62
:104E0000931F8D939C9380E090E0AAEFB3E48FA36F
:104E100098A7A9A7BAA76FA178A589A59AA52DECEF
:104E20003CEC4CE255E40E947D3EDC01CB018BA3BF
:104E30009CA3ADA3BEA36BA17CA18DA19EA120E0EC
:104E400030E040E85FE30E94834088232CF481E057
:104E500090E09AA389A33FC06BA17CA18DA19EA1E4
:104E600020E03FEF4FE757E40E94234018164CF52F
:104E70006FA178A589A59AA520E030E040E251E431
:104E80000E947D3EDC01CB01BC01CD010E94422C81
:104E9000DC01CB019AA389A30FC084E191E098A320
:104EA0008F8F8F8D98A10197F1F798A38F8F89A18C
:104EB0009AA101979AA389A389A19AA1009769F75A
:104EC00014C06BA17CA18DA19EA10E94422CDC018B
:104ED000CB019AA389A389A19AA19E8F8D8F8D8DD5
:104EE0009E8D0197F1F79E8F8D8F0E94770E88EC33
:104EF00068EC0E941F0E0EC081E090E090938C033E
:104F000080938B030E94E90D80918B0390918C0319
:104F10000097D1F7CE57DF4F1882C258D040FE011C
:104F2000EF5AFF4F80819181009731F081E0CE5799
:104F3000DF4F8883C258D040DE01AF5ABF4FFE0119
:104F4000EF5AFF4F80819181019711969C938E9328
:104F5000CE57DF4F8881C258D040882369F60E941F
:104F6000A90E81E00E94131810927403109273032B
:104F700010927603109275031092630376C2FE01BD
:104F8000EF57FF4F80818032E1F5CE0189589F4F66
:104F90000E948F21FE01E35BFF4F91838083FE011E
:104FA000E55BFF4F118210820E9428061CC0FE01A3
:104FB000E55BFF4F20813181FE01E35BFF4F808184
:104FC0009181FC01E20FF31F80810E94A607DE01A0
:104FD000A55BBF4FFE01E55BFF4F8081918101968C
:104FE00011969C938E93FE01E958FF4F20813181E9
:104FF000FE01E55BFF4F8081918182179307BCF230
:1050000034C2FE01EF57FF4F8081813281F5CE011E
:1050100087589F4F0E948F21FE01E75BFF4F9183CE
:105020008083FE01E75BFF4F0190F081E02D8081DE
:10503000FE01E95BFF4F882F90E091838083FE01A2
:10504000E75BFF4F80819181FC013196DE01AA5B15
:10505000BF4F80818C93FE01E95BFF4F808191817E
:10506000FE01EA5BFF4F60810E94F321FEC1FE0159
:10507000EF57FF4F8081823201F5CE0185589F4F57
:105080000E948F21FE01EC5BFF4F91838083FE0124
:10509000EC5BFF4F0190F081E02D8081FE01EE5B23
:1050A000FF4F882F90E091838083FE01EE5BFF4FDE
:1050B000808191810E94C723D8C1FE01EF57FF4F25
:1050C00080818332D1F4CE0183589F4F0E948F217B
:1050D000FE01E05CFF4F91838083FE01E05CFF4FA7
:1050E0000190F081E02D8081882F90E09FAF8EAFFE
:1050F0008EAD9FAD0E94DC22B8C1FE01EF57FF4F7D
:1051000080818A3419F40E94111DAFC1FE01EF574E
:10511000FF4F80818A3509F07DC00E94FB0A809193
:105120008F03909190030E94620A80E090E0AAE7CA
:10513000B4E4898F9A8FAB8FBC8F698D7A8D8B8DFC
:105140009C8D2DEC3CEC4CE255E40E947D3EDC0154
:10515000CB018D8B9E8BAF8BB88F6D897E898F89AC
:10516000988D20E030E040E85FE30E948340882390
:105170002CF481E090E09C8B8B8B3FC06D897E8905
:105180008F89988D20E03FEF4FE757E40E9423403E
:1051900018164CF5698D7A8D8B8D9C8D20E030E052
:1051A00040E251E40E947D3EDC01CB01BC01CD0117
:1051B0000E94422CDC01CB019C8B8B8B0FC084E1C5
:1051C00091E09A8B898B89899A890197F1F79A8B5B
:1051D000898B8B899C8901979C8B8B8B8B899C8974
:1051E000009769F714C06D897E898F89988D0E9418
:1051F000422CDC01CB019C8B8B8B8B899C89988BFF
:105200008F878F8598890197F1F7988B8F870E94F8
:10521000100B2BC1FE01EF57FF4F80818B3419F427
:105220000E94DC1B22C1FE01EF57FF4F80818C34AE
:1052300021F481E080937C0318C1FE01EF57FF4FFA
:1052400080818D3421F481E0809381030EC1FE01C1
:10525000EF57FF4F80818E3439F410928103109202
:1052600082030E94100B01C1FE01EF57FF4F8081A6
:10527000803531F481E08093820310926303F5C09E
:10528000FE01EF57FF4F80818F34D9F48091820364
:10529000813041F480916303813021F481E00E94E8
:1052A0001318E3C0E2E2F0E080818DAF8DAD88237A
:1052B00021F482E00E941318D8C080E00E941318E5
:1052C000D4C0FE01EF57FF4F8081833539F410922F
:1052D0007403109273030E94DD0EC7C0FE01EF57E6
:1052E000FF4F8081843539F4109276031092750354
:1052F0000E94F40EBAC0FE01EF57FF4F8081813546
:1053000059F480917303909174030E9420181092B5
:10531000740310927303A9C0FE01EF57FF4F808101
:10532000823559F480917503909176030E9420187C
:10533000109276031092750398C0FE01EF57FF4F4D
:105340008081853599F4CE0181589F4F0E948F212D
:105350009CAF8BAFEBADFCAD8081882F90E09AAF16
:1053600089AF89AD9AAD0E94880D7FC0FE01EF57CD
:10537000FF4F8081883719F40E94DB2376C00E949A
:10538000FB0A80E090E0AAE7B4E48B879C87AD87B6
:10539000BE876B857C858D859E852DEC3CEC4CE233
:1053A00055E40E947D3EDC01CB018F839887A9875D
:1053B000BA876F81788589859A8520E030E040E85A
:1053C0005FE30E94834088232CF481E090E09E8379
:1053D0008D833FC06F81788589859A8520E03FEF76
:1053E0004FE757E40E94234018164CF56B857C85E7
:1053F0008D859E8520E030E040E251E40E947D3EB4
:10540000DC01CB01BC01CD010E94422CDC01CB01AF
:105410009E838D830FC084E191E09C838B838B817D
:105420009C810197F1F79C838B838D819E810197ED
:105430009E838D838D819E81009769F714C06F8153
:10544000788589859A850E94422CDC01CB019E8358
:105450008D838D819E819A83898389819A81019729
:10546000F1F79A8389830E94100BCB57DF4F0FB659
:10547000F894DEBF0FBECDBFCF91DF910895DF93CB
:10548000CF9300D00F920F92CDB7DEB70E942806BF
:105490008091890390918A0320918703309188033A
:1054A000821B930B9C838B831A8219820FC0898184
:1054B0009A81FC01EE5CF74F8081882F90E00E947A
:1054C000620A89819A8101969A8389831D828B81E0
:1054D0009C81009711F081E08D838B819C810197E5
:1054E0009C838B838D81882311F780918703909112
:1054F00088030E94620A8091890390918A030E9426
:10550000620A80918F03909190030E94620A0F902B
:105510000F900F900F900F90CF91DF910895DF9330
:10552000CF9300D00F920F92CDB7DEB78091830357
:10553000909184039D838C83809185039091860351
:105540009B838A83AAC08C819D81FC01E554FC4F1A
:10555000808189838C819D8101969D838C838C8140
:105560009D8124E08030920711F41D821C8280917D
:105570004002909141021816190674F489818F3700
:1055800009F08BC080914002909141020197909365
:1055900041028093400281C08091890390918A03E7
:1055A000FC01EE5CF74F89818083809189039091A3
:1055B0008A03019690938A038093890380918903DB
:1055C00090918A0324E08030920721F410928A039C
:1055D0001092890380913E0290913F02019790932F
:1055E0003F0280933E0280913E0290913F020097DD
:1055F00009F053C080918F03909190030097F1F4CC
:105600008981882F90E0807C9070009739F481E048
:1056100090E09093900380938F0309C08091790369
:1056200090917A03019690937A038093790381E0B5
:1056300090E090933F0280933E022FC080918F03B1
:10564000909190038130910571F48981882F90E0C9
:1056500090933F0280933E0282E090E0909390030B
:1056600080938F031AC080918F03909190038230B2
:10567000910599F481E090E090933F0280933E027F
:105680001092900310928F038091790390917A0386
:10569000019690937A03809379032C813D818A81CE
:1056A0009B812817390709F04ECF8C819D819093FB
:1056B0008403809383030F900F900F900F900F90AF
:1056C000CF91DF910895DF93CF93CDB7DEB7619788
:1056D0000FB6F894DEBF0FBECDBF0E942E210E94F0
:1056E00095000E94940584E68093B10384E680933C
:1056F000B40310926B0310926C0310926D0310921E
:105700006E0310926F031092700310927103109247
:1057100072030E948F2A80917B03882311F00E94DC
:10572000311C80918103882311F00E94A320809175
:105730008203882311F00E94DC20809179039091EC
:105740007A03181619062CF7CE0141960E944C21B7
:10575000988B8F878F8598892FEF8F3F920709F05D
:1057600084C088EE93E00E94250B80E090E0AAE7D9
:10577000B4E48B879C87AD87BE876B857C858D85E0
:105780009E852DEC3CEC4CE255E40E947D3EDC0114
:10579000CB018F839887A987BA876F8178858985A0
:1057A0009A8520E030E040E85FE30E948340882350
:1057B0002CF481E090E09E838D833FC06F817885DB
:1057C00089859A8520E03FEF4FE757E40E94234008
:1057D00018164CF56B857C858D859E8520E030E024
:1057E00040E251E40E947D3EDC01CB01BC01CD01D1
:1057F0000E94422CDC01CB019E838D830FC084E18B
:1058000091E09C838B838B819C810197F1F79C8332
:105810008B838D819E8101979E838D838D819E8157
:10582000009769F714C06F81788589859A850E94F1
:10583000422CDC01CB019E838D838D819E819A83D6
:10584000898389819A810197F1F79A83898388EE08
:1058500093E00E94250B8091790390917A03019740
:1058600090937A038093790354CF89890E942A24E4
:105870008091790390917A03019790937A038093B2
:10588000790347CFEF92FF920F931F937B018C0117
:1058900020E030E040E05FE40E94534088238CF039
:1058A000C801B70120E030E040E05FE40E941F3E05
:1058B0000E9411419B01AC012050304040405048B3
:1058C00006C0C801B7010E9411419B01AC01B9019A
:1058D000CA011F910F91FF90EF900895A2E7B0E0E9
:1058E000E4E7FCE20C94AD45982E892E712E88E0F9
:1058F000FE013196DF01682E1D926A94E9F7298333
:105900003A834B835C836D837E839F829887FE01FD
:105910003996DF011D928A95E9F7A986BA86CB866A
:10592000DC86ED86FE860F87188B8D819E81AF8188
:10593000B885B7FD07C0E1961CAE1DAE1EAE1FAE0A
:10594000E19764C0219581E0121608F080E031955E
:1059500091E0131608F090E0B32FB81B81E03B17DD
:1059600008F080E0982B419531E0141608F030E003
:10597000A42FA91B81E04A1708F080E0382B51952D
:1059800091E0151608F090E0F52FF31B81E05F170A
:1059900008F080E0982B619531E0161608F030E0B1
:1059A000E62FE91B81E06E1708F080E0382B719537
:1059B00041E0171608F040E0572F531B81E07517A0
:1059C00008F080E0482B892D819591E0181608F0A9
:1059D00090E0682E641A462D31E0861508F030E01C
:1059E000932B882D8195891B2983BA83AB83FC83F4
:1059F000ED835E834F8388872FEF3FEF4FEF5FEF9D
:105A0000E1962CAF3DAF4EAF5FAFE1978D859E85A0
:105A1000AF85B889B7FF6AC0E1964CAD5DAD6EAD9C
:105A20007FADE1974095509560957095E1964CAFAC
:105A30005DAF6EAF7FAFE197A19481E01A1408F0DB
:105A400080E0B19491E01B1408F090E06B2D681B8E
:105A500081E0B61608F080E0982BC19421E01C1478
:105A600008F020E05C2D591B81E0C51608F080E0AD
:105A7000282BD19491E01D1408F090E04D2D421B8D
:105A800081E0D41608F080E0982BE19421E01E1408
:105A900008F020E03E2D391B81E0E31608F080E09D
:105AA000282BF19491E01F1408F090E07F2D721BD9
:105AB000272F81E0F71608F080E0982B019511E080
:105AC000101608F010E0802F891B982F81E009172D
:105AD00008F080E0182B872D8195811BA9866A87A5
